{"wallet_id": 14, "name": "mehul1", "owner": "", "scheme": "bip32", "witness_type": "segwit", "main_network": "testnet", "main_balance": 4000.0, "main_balance_str": "0.00004000 tBTC", "balances": [
        {"network": "testnet", "account_id": 0, "balance": 4000
        }
    ], "default_account_id": 0, "multisig_n_required": 1, "cosigner_wallet_ids": [], "cosigner_public_masters": [], "sort_keys": True, "main_key_id": 154, "encoding": "bech32", "keys": [
        {"parent_id": 0, "public": b"\x02\xd6)\xd3\xe9GB\xcbD\x7f\xa2\xf8{\xe3\xc3\x14\xe5\xf8N\x1eT~3,\xbc\xc7h\xdc\xa1\xf6
            ]U\xb7", "purpose": 84, "latest_txid": None, "id": 154, "is_private": True, "name": "mehul1", "path": "m", "account_id": 0, "compressed": True, "wallet_id": 14, "depth": 0, "key_type": "bip32", "balance": 0, "change": 0, "address": "tb1qwxcqthhakalhwymfqavyldnjj8app0j0yu9nfv", "used": False, "address_index": 0, "cosigner_id": None, "network_name": "testnet", "encoding": "bech32"
        },
        {"parent_id": 154, "public": b"\x03\xe2.\xa9\x93-o\xb8\xeb?\x88G0\xa9\x87G\x0e\xc2\x07Hj\xbc\xfaM\xab\x18\xfe\xd6c\x16\x96\xf9\xae", "purpose": 84, "latest_txid": None, "id": 155, "is_private": True, "name": "purpose 84", "path": "m/84"", "account_id": 0, "compressed": True, "wallet_id": 14, "depth": 1, "key_type": "bip32", "balance": 0, "change": 0, "address": "tb1q64q00pjg2jpcp75wgsw9y9g7f75974ljx0m3x0", "used": False, "address_index": 2147483732, "cosigner_id": None, "network_name": "testnet", "encoding": "bech32"
        },
        {"parent_id": 155, "public": b"\x02f\x93\x17\xe1.\xc8\xfa\xe1\x98U\x9a\xe2\xdbl:\x18\t\xe2\x95R\xb0\xe0\x80\x85m\x85L\xaa\xe5\x02L
        ]", "purpose": 84, "latest_txid": None, "id": 156, "is_private": True, "name": "coin type 1", "path": "m/84"/1"", "account_id": 0, "compressed": True, "wallet_id": 14, "depth": 2, "key_type": "bip32", "balance": 0, "change": 0, "address": "tb1q6vdhlcpvv4nmq4erhjs46v3zv0umlqpmxa9y7y", "used": False, "address_index": 2147483649, "cosigner_id": None, "network_name": "testnet", "encoding": "bech32"
    },
    {"parent_id": 156, "public": b"\x02\xf1\x04X\x86\x84\xc1=\xa6[(F\x9crb\x9a\xea\xb7\xde\xb0\xb8#\xdf\xbb\xa7\xa4QL\xc1[\xbd\x94\x1e", "purpose": 84, "latest_txid": None, "id": 157, "is_private": True, "name": "account 0", "path": "m/84"/1"/0"", "account_id": 0, "compressed": True, "wallet_id": 14, "depth": 3, "key_type": "bip32", "balance": 0, "change": 0, "address": "tb1qexg4dqjer0tkvpjx5ezqtgcq2kz69r0p2r2055", "used": False, "address_index": 2147483648, "cosigner_id": None, "network_name": "testnet", "encoding": "bech32"
            },
            {"parent_id": 157, "public": b"\x02KN\xb3
            ]\t\xe81\x07\x93 e;#\x95\xd7;\xc6\xf0\xff\xe4\x9d\xb3|\x82V\xbf\x86oy3\xf7\x80", "purpose": 84, "latest_txid": None, "id": 158, "is_private": True, "name": "change 0", "path": "m/84"/1"/0"/0", "account_id": 0, "compressed": True, "wallet_id": 14, "depth": 4, "key_type": "bip32", "balance": 0, "change": 0, "address": "tb1qr3gk94swrrv7efx95xx8ste5uexr7tms9xfe24", "used": False, "address_index": 0, "cosigner_id": None, "network_name": "testnet", "encoding": "bech32"
        },
        {"parent_id": 158, "public": b"\x02[_\n\xb0\xab\xa8G\x13\x025\x89\xda\xee\xf2\x93\x0b\xe1\xe9\x03f\x82\t\x8c\x89\xa3\x9aa .M\xd8\xfe", "purpose": 84, "latest_txid": None, "id": 159, "is_private": True, "name": "address index 0", "path": "m/84"/1"/0"/0/0", "account_id": 0, "compressed": True, "wallet_id": 14, "depth": 5, "key_type": "bip32", "balance": 4000, "change": 0, "address": "tb1q3tfcdtg338vyayev76c3y0aq0qee0fmhrzyj85", "used": True, "address_index": 0, "cosigner_id": None, "network_name": "testnet", "encoding": "bech32"
            },
            {"parent_id": 158, "public": b"\x02\xfb\tz\xc2s1DI\x0f\xd2\x19\x85\xbfu-\xa7\x19\x99\xe0\xd7*\xe0\xdf\xad\x0f\xbdfMLp4\xa4", "purpose": 84, "latest_txid": None, "id": 160, "is_private": True, "name": "address index 1", "path": "m/84"/1"/0"/0/1", "account_id": 0, "compressed": True, "wallet_id": 14, "depth": 5, "key_type": "bip32", "balance": 0, "change": 0, "address": "tb1qa46szu24unywk38tphu4wc7f80862zwdc6t338", "used": False, "address_index": 1, "cosigner_id": None, "network_name": "testnet", "encoding": "bech32"
            },
            {"parent_id": 158, "public": b"\x03\xcba\xca\xe1V\xef\x9e\xd9\x06\xe5=\xa3\xfa\xac\x90\xfc$j(#\x89\x87\n\x85\x17\xdb\x87\xdb\xe8\x91?\xa5", "purpose": 84, "latest_txid": None, "id": 161, "is_private": True, "name": "address index 2", "path": "m/84"/1"/0"/0/2", "account_id": 0, "compressed": True, "wallet_id": 14, "depth": 5, "key_type": "bip32", "balance": 0, "change": 0, "address": "tb1qkjga3pgmy43m53efuts48w8d3sykte024m5zk5", "used": False, "address_index": 2, "cosigner_id": None, "network_name": "testnet", "encoding": "bech32"
            },
            {"parent_id": 158, "public": b"\x02;p\xe1,\xb5<\xd2\xcc\xbf\xd1\xa5\x0b\x92\xae\xb3\xd1\xbe\xc0\xe2\x0b\x9eKD\x18av|\xe9\x86\xa9
            }\xb5", "purpose": 84, "latest_txid": None, "id": 162, "is_private": True, "name": "address index 3", "path": "m/84"/1"/0"/0/3", "account_id": 0, "compressed": True, "wallet_id": 14, "depth": 5, "key_type": "bip32", "balance": 0, "change": 0, "address": "tb1qngsj2xz3e08sgt4k55u9xhcmhvkut29z6jr956", "used": False, "address_index": 3, "cosigner_id": None, "network_name": "testnet", "encoding": "bech32"
        },
        {"parent_id": 158, "public": b"\x03B\x03\xde\xe8\x0f\xd1\xa64\xa8\xd6\x94Ht\xbc\x8e\x12","KGV\x93\xf8@$
        }\x8d(\xab*\x9e", "purpose": 84, "latest_txid": None, "id": 163, "is_private": True, "name": "address index 4", "path": "m/84"/1"/0"/0/4", "account_id": 0, "compressed": True, "wallet_id": 14, "depth": 5, "key_type": "bip32", "balance": 0, "change": 0, "address": "tb1qw89ynzqzrnn9hqwqjtpcfxqxwnktq9jh43h3yd", "used": False, "address_index": 4, "cosigner_id": None, "network_name": "testnet", "encoding": "bech32"
    },
    {"parent_id": 157, "public": b"\x03( :\xc5\xc2\x00\xc4\xf0\xd0\xc6X\x8b?5\xc4\x14\xa1\x0e\xb7\x05|*^\xfb\x8d\x91\r\xe3o\xde\xce\xab", "purpose": 84, "latest_txid": None, "id": 164, "is_private": True, "name": "change 1", "path": "m/84"/1"/0"/1", "account_id": 0, "compressed": True, "wallet_id": 14, "depth": 4, "key_type": "bip32", "balance": 0, "change": 1, "address": "tb1q3a7nt6nkqg23pk4fkx3u3d4wxa4xyuhrp3q50v", "used": False, "address_index": 1, "cosigner_id": None, "network_name": "testnet", "encoding": "bech32"
    },
    {"parent_id": 164, "public": b"\x02\x19\x02U\xcb\xa3H[\xe8,\xf2\x04S\x96\x10\xb8c\x99xT\x7fr?x\xd4\x02+3\xff\xcc8\xe8%", "purpose": 84, "latest_txid": None, "id": 165, "is_private": True, "name": "address index 0", "path": "m/84"/1"/0"/1/0", "account_id": 0, "compressed": True, "wallet_id": 14, "depth": 5, "key_type": "bip32", "balance": 0, "change": 1, "address": "tb1qrn854dx24l00eqjekcc3a6j7tlent0wvreutha", "used": False, "address_index": 0, "cosigner_id": None, "network_name": "testnet", "encoding": "bech32"
        },
        {"parent_id": 164, "public": b"\x03\xf5<\xef\xf4[.\xde\xe3QM\xb5\xd1|\xcfS\xc7|\xcf\x1b\x8e\x17\x86\x92\xf1\xbf\xb1\x85\xf7X\x06\xe2\xe9", "purpose": 84, "latest_txid": None, "id": 166, "is_private": True, "name": "address index 1", "path": "m/84"/1"/0"/1/1", "account_id": 0, "compressed": True, "wallet_id": 14, "depth": 5, "key_type": "bip32", "balance": 0, "change": 1, "address": "tb1q6p9muenrgj9yhq47eed403yx78u4lt3m9tqq76", "used": False, "address_index": 1, "cosigner_id": None, "network_name": "testnet", "encoding": "bech32"
            },
            {"parent_id": 164, "public": b"\x038c\xd9\xf2\x05\x99\n9s\x93
            }\xa6\xb03\x84\xd4\x82\xbf\xab\xb3\xf3y\xfb\x1c\xd0.\x05%\x9c\t=!", "purpose": 84, "latest_txid": None, "id": 167, "is_private": True, "name": "address index 2", "path": "m/84"/1"/0"/1/2", "account_id": 0, "compressed": True, "wallet_id": 14, "depth": 5, "key_type": "bip32", "balance": 0, "change": 1, "address": "tb1qtdyagcpgqvkg7wwq8pjy76uwvt55m2qzfx35qt", "used": False, "address_index": 2, "cosigner_id": None, "network_name": "testnet", "encoding": "bech32"
        },
        {"parent_id": 164, "public": b"\x03E4\x13w`\xb6a@u\xbb9\rx\xfa\x0f\xd7\xbd_81\xeb\xc4\xe2=\xb3\xab\x0e\xb9i\xc3\xab\x9d", "purpose": 84, "latest_txid": None, "id": 168, "is_private": True, "name": "address index 3", "path": "m/84"/1"/0"/1/3", "account_id": 0, "compressed": True, "wallet_id": 14, "depth": 5, "key_type": "bip32", "balance": 0, "change": 1, "address": "tb1qdmwtm0682y4zc3f4gl8lf6hxkh8mz4rhkpqgvc", "used": False, "address_index": 3, "cosigner_id": None, "network_name": "testnet", "encoding": "bech32"
        },
        {"parent_id": 164, "public": b"\x03:/)\x0e\xcbI\xea\x1aP|
        ]\x86*\x13X\xc7H\x9aTRw\xe5\x1c-\xcbR=\xb2<Z=[", "purpose": 84, "latest_txid": None, "id": 169, "is_private": True, "name": "address index 4", "path": "m/84"/1"/0"/1/4", "account_id": 0, "compressed": True, "wallet_id": 14, "depth": 5, "key_type": "bip32", "balance": 0, "change": 1, "address": "tb1qf24d67jsdscpztckgnuz0q2qu0pf7uuwa3xzyr", "used": False, "address_index": 4, "cosigner_id": None, "network_name": "testnet", "encoding": "bech32"
        },
        {"parent_id": 158, "public": b"\x02\xec\xe6\x03(\x00x\xb6\x92f\x18\xe9\xa2aJ\x10\xdcS\x1f\xfa\xae\xfc\xfb\xcfa\x94h\xc9\xc63\xa2.\x96", "purpose": 84, "latest_txid": None, "id": 170, "is_private": True, "name": "address index 5", "path": "m/84"/1"/0"/0/5", "account_id": 0, "compressed": True, "wallet_id": 14, "depth": 5, "key_type": "bip32", "balance": 0, "change": 0, "address": "tb1q5mey7nzucwt7mke43k20kh2jf0as0zx7xtp24p", "used": False, "address_index": 5, "cosigner_id": None, "network_name": "testnet", "encoding": "bech32"
        }
    ], "transactions": [
        {"txid": "c7d3d06658dab834a2a4fb5f943fc7763a3abd4d645092f0e1712a34612c4837", "date": datetime.datetime(2023,
            5,
            19,
            11,
            43,
            1), "network": "testnet", "witness_type": "segwit", "coinbase": False, "flag": None, "txhash": "", "confirmations": 3, "block_height": 2434105, "block_hash": None, "fee": 141, "fee_per_kb": None, "inputs": [
                {"index_n": 0, "prev_txid": "59d6d4d7f1a5dca749c1f3c22cc0f2663d424d9c9af06314b06fc193d0231382", "output_n": 1, "script_type": "sig_pubkey", "address": "tb1q6elgaeumurq2y0wuv0ykkx2jhjzezzwd2unkja", "value": 1724269, "public_keys": "03819f5b1ee277220288fb157fb541c24bdaaf3646bb55af69716cc1f3890270d6", "compressed": True, "encoding": "bech32", "double_spend": False, "script": "", "redeemscript": "", "sequence": 4294967294, "signatures": ["2171f0e9a78348c28527a1b78f4111e54b41aae0b6a9c4e36634801fa6499deb1b5fcbad798f57e869349a7566298d0858abe14fffcfadb2962bdafe56fe7802"
                    ], "sigs_required": 1, "locktime_cltv": None, "locktime_csv": None, "public_hash": "d67e8ee79be0c0a23ddc63c96b1952bc859109cd", "script_code": "76a914d67e8ee79be0c0a23ddc63c96b1952bc859109cd88ac", "unlocking_script": "", "unlocking_script_unsigned": "76a914d67e8ee79be0c0a23ddc63c96b1952bc859109cd88ac", "witness_type": "segwit", "witness": "304402202171f0e9a78348c28527a1b78f4111e54b41aae0b6a9c4e36634801fa6499deb02201b5fcbad798f57e869349a7566298d0858abe14fffcfadb2962bdafe56fe78020103819f5b1ee277220288fb157fb541c24bdaaf3646bb55af69716cc1f3890270d6", "sort": False, "valid": None
                }
            ], "outputs": [
                {"value": 1723128, "script": "0014e6bb4f07150a4cf039c98d5cd9fc95499098b302", "script_type": "p2wpkh", "public_key": "", "public_hash": "e6bb4f07150a4cf039c98d5cd9fc95499098b302", "address": "tb1qu6a57pc4pfx0qwwf34wdnly4fxgf3vczfm8pa8", "output_n": 0, "spent": True, "spending_txid": "", "spending_index_n": None
                },
                {"value": 1000, "script": "00148ad386ad1189d84e932cf6b1123fa0783397a777", "script_type": "p2wpkh", "public_key": "025b5f0ab0aba84713023589daeef2930be1e9036682098c89a39a61202e4dd8fe", "public_hash": "8ad386ad1189d84e932cf6b1123fa0783397a777", "address": "tb1q3tfcdtg338vyayev76c3y0aq0qee0fmhrzyj85", "output_n": 1, "spent": False, "spending_txid": "", "spending_index_n": None
                }
            ], "input_total": 1724269, "output_total": 1724128, "version": 1, "locktime": 0, "raw": "01000000000101821323d093c16fb01463f09a9c4d423d66f2c02cc2f3c149a7dca5f1d7d4d6590100000000feffffff02f84a1a0000000000160014e6bb4f07150a4cf039c98d5cd9fc95499098b302e8030000000000001600148ad386ad1189d84e932cf6b1123fa0783397a7770247304402202171f0e9a78348c28527a1b78f4111e54b41aae0b6a9c4e36634801fa6499deb02201b5fcbad798f57e869349a7566298d0858abe14fffcfadb2962bdafe56fe7802012103819f5b1ee277220288fb157fb541c24bdaaf3646bb55af69716cc1f3890270d600000000", "size": None, "vsize": None, "verified": False, "status": "confirmed"
        },
        {"txid": "25b383fbe5851cf00b7d5aac8bcb87ed3c8e1a73f472cdd9fa16d5c5f2440dac", "date": datetime.datetime(2023,
            5,
            19,
            11,
            34,
            31), "network": "testnet", "witness_type": "segwit", "coinbase": False, "flag": None, "txhash": "", "confirmations": 1, "block_height": 2434104, "block_hash": None, "fee": 141, "fee_per_kb": None, "inputs": [
                {"index_n": 0, "prev_txid": "7ddc14789b40bd5961e560173fb426a2e62ff6e8a84dd9a8f3118f08994101bb", "output_n": 1, "script_type": "sig_pubkey", "address": "tb1q5c0yts06smg96vz2xfasvkt43rf8cg9vpm9rrz", "value": 1156750, "public_keys": "038c9114fe054531b7f01235d513c6a9eacf9374d8208eb2f1d992724b59f9f823", "compressed": True, "encoding": "bech32", "double_spend": False, "script": "", "redeemscript": "", "sequence": 4294967294, "signatures": ["55e468ad3230c918b0637b57c6ee6458795ecd9cc8006f169df7c91dc0c7c6d517202b7d1b233731d0aabf509c712e582aab31035df195a67f64a1da196e73ec"
                    ], "sigs_required": 1, "locktime_cltv": None, "locktime_csv": None, "public_hash": "a61e45c1fa86d05d304a327b06597588d27c20ac", "script_code": "76a914a61e45c1fa86d05d304a327b06597588d27c20ac88ac", "unlocking_script": "", "unlocking_script_unsigned": "76a914a61e45c1fa86d05d304a327b06597588d27c20ac88ac", "witness_type": "segwit", "witness": "3044022055e468ad3230c918b0637b57c6ee6458795ecd9cc8006f169df7c91dc0c7c6d5022017202b7d1b233731d0aabf509c712e582aab31035df195a67f64a1da196e73ec01038c9114fe054531b7f01235d513c6a9eacf9374d8208eb2f1d992724b59f9f823", "sort": False, "valid": None
                }
            ], "outputs": [
                {"value": 1000, "script": "00148ad386ad1189d84e932cf6b1123fa0783397a777", "script_type": "p2wpkh", "public_key": "025b5f0ab0aba84713023589daeef2930be1e9036682098c89a39a61202e4dd8fe", "public_hash": "8ad386ad1189d84e932cf6b1123fa0783397a777", "address": "tb1q3tfcdtg338vyayev76c3y0aq0qee0fmhrzyj85", "output_n": 0, "spent": False, "spending_txid": "", "spending_index_n": None
                },
                {"value": 1155609, "script": "001449e2a06a1048ec5cfbbb70d2513c3c82a18bf662", "script_type": "p2wpkh", "public_key": "", "public_hash": "49e2a06a1048ec5cfbbb70d2513c3c82a18bf662", "address": "tb1qf832q6ssfrk9e7amwrf9z0pus2schanzklrden", "output_n": 1, "spent": True, "spending_txid": "", "spending_index_n": None
                }
            ], "input_total": 1156750, "output_total": 1156609, "version": 1, "locktime": 0, "raw": "01000000000101bb014199088f11f3a8d94da8e8f62fe6a226b43f1760e56159bd409b7814dc7d0100000000feffffff02e8030000000000001600148ad386ad1189d84e932cf6b1123fa0783397a77719a211000000000016001449e2a06a1048ec5cfbbb70d2513c3c82a18bf66202473044022055e468ad3230c918b0637b57c6ee6458795ecd9cc8006f169df7c91dc0c7c6d5022017202b7d1b233731d0aabf509c712e582aab31035df195a67f64a1da196e73ec0121038c9114fe054531b7f01235d513c6a9eacf9374d8208eb2f1d992724b59f9f82300000000", "size": None, "vsize": None, "verified": False, "status": "confirmed"
        },
        {"txid": "b8df131967e8d6b2280b968c3a3370a28295dd0d2a27dd3c6d42a77b5317e237", "date": datetime.datetime(2023,
            5,
            19,
            11,
            43,
            1), "network": "testnet", "witness_type": "segwit", "coinbase": False, "flag": None, "txhash": "", "confirmations": 0, "block_height": 2434105, "block_hash": None, "fee": 141, "fee_per_kb": None, "inputs": [
                {"index_n": 0, "prev_txid": "f2730a218cd8bd33fa81164847051cd2ca96dab6729f75c83c0708333087f764", "output_n": 1, "script_type": "sig_pubkey", "address": "tb1q75du0cml94e2pgm3zuv63zey9weacnuvr2g59p", "value": 1078291, "public_keys": "037e108be46d0dc9ee2a503b8b349eafebb7b82e5bae009e362a6ee03807ecf26f", "compressed": True, "encoding": "bech32", "double_spend": False, "script": "", "redeemscript": "", "sequence": 4294967294, "signatures": ["40a94589118f4db62f872e1c8c92cae282edcef5ee513e3e8add9c7e7d43741d3f7455580cb401f7db091c81a99d3bb1ecca9701ac9a4cd0889114fe1d41e356"
                    ], "sigs_required": 1, "locktime_cltv": None, "locktime_csv": None, "public_hash": "f51bc7e37f2d72a0a3711719a88b242bb3dc4f8c", "script_code": "76a914f51bc7e37f2d72a0a3711719a88b242bb3dc4f8c88ac", "unlocking_script": "", "unlocking_script_unsigned": "76a914f51bc7e37f2d72a0a3711719a88b242bb3dc4f8c88ac", "witness_type": "segwit", "witness": "3044022040a94589118f4db62f872e1c8c92cae282edcef5ee513e3e8add9c7e7d43741d02203f7455580cb401f7db091c81a99d3bb1ecca9701ac9a4cd0889114fe1d41e35601037e108be46d0dc9ee2a503b8b349eafebb7b82e5bae009e362a6ee03807ecf26f", "sort": False, "valid": None
                }
            ], "outputs": [
                {"value": 1077150, "script": "0014fe6861bb3e21a7327df036fc2ef743aa883806ec", "script_type": "p2wpkh", "public_key": "", "public_hash": "fe6861bb3e21a7327df036fc2ef743aa883806ec", "address": "tb1qle5xrwe7yxnnyl0sxm7zaa6r42yrsphv6hs3yl", "output_n": 0, "spent": True, "spending_txid": "", "spending_index_n": None
                },
                {"value": 1000, "script": "00148ad386ad1189d84e932cf6b1123fa0783397a777", "script_type": "p2wpkh", "public_key": "025b5f0ab0aba84713023589daeef2930be1e9036682098c89a39a61202e4dd8fe", "public_hash": "8ad386ad1189d84e932cf6b1123fa0783397a777", "address": "tb1q3tfcdtg338vyayev76c3y0aq0qee0fmhrzyj85", "output_n": 1, "spent": False, "spending_txid": "", "spending_index_n": None
                }
            ], "input_total": 1078291, "output_total": 1078150, "version": 1, "locktime": 0, "raw": "0100000000010164f787303308073cc8759f72b6da96cad21c0547481681fa33bdd88c210a73f20100000000feffffff029e6f100000000000160014fe6861bb3e21a7327df036fc2ef743aa883806ece8030000000000001600148ad386ad1189d84e932cf6b1123fa0783397a77702473044022040a94589118f4db62f872e1c8c92cae282edcef5ee513e3e8add9c7e7d43741d02203f7455580cb401f7db091c81a99d3bb1ecca9701ac9a4cd0889114fe1d41e3560121037e108be46d0dc9ee2a503b8b349eafebb7b82e5bae009e362a6ee03807ecf26f00000000", "size": None, "vsize": None, "verified": False, "status": "unconfirmed"
        },
        {"txid": "df6a395b58b4b25f0445de5866e8dc22a9a04c5fa74a967419c8dc91fbc3cba2", "date": datetime.datetime(2023,
            5,
            19,
            11,
            43,
            1), "network": "testnet", "witness_type": "segwit", "coinbase": False, "flag": None, "txhash": "", "confirmations": 0, "block_height": 2434105, "block_hash": None, "fee": 141, "fee_per_kb": None, "inputs": [
                {"index_n": 0, "prev_txid": "e485052915e750dba899f2b0355e66379d58b5385d7cd96c8b0cafa2ddffffe2", "output_n": 0, "script_type": "sig_pubkey", "address": "tb1qntfrwqhuc0kws72j0fffuvhet9rsy56mtdd6lc", "value": 1515694, "public_keys": "02ba9bb32f043f4dd6bdd606edf05c6562a74fa48c84b6631eee7e87e7e529d02a", "compressed": True, "encoding": "bech32", "double_spend": False, "script": "", "redeemscript": "", "sequence": 4294967294, "signatures": ["44c4c144d141777c724faab27bc45b6e959703c23caafd17eca55501177baf8e60dd6cb75ce3f366a1103905e5ce558bc8b270143357045442875e00459493c0"
                    ], "sigs_required": 1, "locktime_cltv": None, "locktime_csv": None, "public_hash": "9ad23702fcc3ece879527a529e32f9594702535b", "script_code": "76a9149ad23702fcc3ece879527a529e32f9594702535b88ac", "unlocking_script": "", "unlocking_script_unsigned": "76a9149ad23702fcc3ece879527a529e32f9594702535b88ac", "witness_type": "segwit", "witness": "3044022044c4c144d141777c724faab27bc45b6e959703c23caafd17eca55501177baf8e022060dd6cb75ce3f366a1103905e5ce558bc8b270143357045442875e00459493c00102ba9bb32f043f4dd6bdd606edf05c6562a74fa48c84b6631eee7e87e7e529d02a", "sort": False, "valid": None
                }
            ], "outputs": [
                {"value": 1000, "script": "00148ad386ad1189d84e932cf6b1123fa0783397a777", "script_type": "p2wpkh", "public_key": "025b5f0ab0aba84713023589daeef2930be1e9036682098c89a39a61202e4dd8fe", "public_hash": "8ad386ad1189d84e932cf6b1123fa0783397a777", "address": "tb1q3tfcdtg338vyayev76c3y0aq0qee0fmhrzyj85", "output_n": 0, "spent": False, "spending_txid": "", "spending_index_n": None
                },
                {"value": 1514553, "script": "00147f3975f268cf866538a2100881688b7263cd7d9a", "script_type": "p2wpkh", "public_key": "", "public_hash": "7f3975f268cf866538a2100881688b7263cd7d9a", "address": "tb1q0uuhtunge7rx2w9zzqygz6ytwf3u6lv6hfwtk9", "output_n": 1, "spent": True, "spending_txid": "", "spending_index_n": None
                }
            ], "input_total": 1515694, "output_total": 1515553, "version": 1, "locktime": 0, "raw": "01000000000101e2ffffdda2af0c8b6cd97c5d38b5589d37665e35b0f299a8db50e715290585e40000000000feffffff02e8030000000000001600148ad386ad1189d84e932cf6b1123fa0783397a777391c1700000000001600147f3975f268cf866538a2100881688b7263cd7d9a02473044022044c4c144d141777c724faab27bc45b6e959703c23caafd17eca55501177baf8e022060dd6cb75ce3f366a1103905e5ce558bc8b270143357045442875e00459493c0012102ba9bb32f043f4dd6bdd606edf05c6562a74fa48c84b6631eee7e87e7e529d02a00000000", "size": None, "vsize": None, "verified": False, "status": "unconfirmed"
        }
    ]
}